:100000000C9496020C94BE020C94BE020C94BE0298
:100010000C94BE020C94BE020C94BE020C94BE0260
:100020000C94BE020C94BE020C94462A0C94D72762
:100030000C94BE020C94BE020C94BE020C94BE0240
:100040000C94BE020C94BE020C94BE020C94BE0230
:100050000C94BE020C94BE020C94BE020C94E230CE
:100060000C94BE020C94BE020C94BE020C94BE0210
:100070000C94BE020C94BE020C94BE020C94C403F9
:100080000C9462050C94BE020C94BE020C94BE0249
:100090000C94BE020C94BE020C94BE020C94BE02E0
:1000A0000C94BE020C94BE020C94BE0257617842BE
:1000B000656520302E313261202D2D20627A7A2123
:1000C00020627A7A210A53657269616C2F41444239
:1000D000207461626C657420746F205553422063F4
:1000E0006F6E7665727465722E00456E7465726906
:1000F0006E672070726F78696D6974792E204D6F0C
:1001000064653D0045786974696E672070726F7828
:10011000696D6974792E00414442204572726F7294
:1001200020636F64653D002D2D20706F7765726FC1
:100130006E002D2D206964656E74696679004144F6
:1001400042205461626C657420496E666F3A206D7E
:1001500061785F783D002C206D61785F793D002DDE
:100160002D205F344C33002D2D205F344C335F72D3
:100170006573706F6E7365002D2D205F34543300EE
:100180002D2D205F3454335F726573706F6E73650D
:10019000002D2D205F344C31002D2D205F344C314B
:1001A0005F726573706F6E7365002D2D205F345420
:1001B000315F636865636B002D2D205F3454315FC0
:1001C000636865636B5F726573706F6E7365002D36
:1001D0002D206964656E746966795F726573706FEE
:1001E0006E73650073746F7032737461727420740F
:1001F000696D6520746F6F20736D616C6C3A2000BF
:10020000427574746F6E202300696E00686F7665A6
:1002100072696E6700646F776E0068656C645F6416
:100220006F776E007570006F757400747269676720
:10023000657228290070726F784F757454726967FF
:1002400067657228290064656275673A207061638A
:100250006B65742073697A6520746F6F206C6172AE
:1002600067652C206D61783D002A2A2044656275FF
:100270006720416374697669747920456E61626CA8
:100280006564202A2A207365636F6E64733D006481
:10029000656C61795F6265666F72655F73746172C8
:1002A000743A207365636F6E64733D0041637469D3
:1002B0007669747920646F6E653A200072657065A6
:1002C0006174696E672E2E2E0073746F7000496E14
:1002D00076616C696420506F727420636F6D6D611C
:1002E0006E64004750494F20696E69743A20004996
:1002F0006E76616C696420506175736520636F6D03
:100300006D616E64004572726F7220706172736904
:100310006E6720696E697420737472696E672C2031
:100320000062616420636861726163746572006376
:100330006F6D6D616E6420746F6F206C6F6E6720DF
:1003400028706F73203D20000A50726573737572B8
:1003500065204D61783D002C204861732054696C04
:10036000743A2054696C742058204D61783D002CFB
:100370002054696C742059204D61783D002C204E2A
:100380006F2054696C74002C2056657273696F6E0F
:100390003D0069736476345F73657269616C3A3AE3
:1003A000696E697428290053657269616C20546113
:1003B000626C6574202D2000556E737570706F72BD
:1003C00074656400556C74726150616400417274AC
:1003D00050616449490050656E506172746E657277
:1003E00000202D20524F4D2056657273696F6E208C
:1003F00000202D20456E7465722070726F78203D4C
:10040000004572617365720050656E00202D2045B5
:100410007869742070726F780070726F746F636F98
:100420006C345F73657269616C3A3A696E697428FD
:10043000290A0053657269616C205461626C6574AD
:10044000202D2000496E74756F7300496E74756FAE
:1004500073320070726F746F636F6C355F736572A7
:1004600069616C3A3A696E6974282900556E726543
:10047000636F676E697A656420416374697661743D
:10048000652041726561207265636F7264207479C2
:10049000706500746F70617A5F73657269616C3A40
:1004A0003A696E69742829005573625574696C3A0B
:1004B000205061636B65742073697A6520746F6F77
:1004C000206C61726765005B555342205061636B1D
:1004D0006574202D204F7574206F662072616E67E1
:1004E00065207061636B65742028616C6C207A658F
:1004F000726F73295D005B555342205061636B65D9
:1005000074202D20496E2052616E676520706163F2
:100510006B65742C206572617365723D0004030481
:1005200009001907D213961C9D1FAD2611241FBE6A
:10053000CFEFDAE0DEBFCDBF14E0A0E0B1E0EEE542
:10054000F1E702C005900D92A837B107D9F716E080
:10055000A8E7B4E001C01D92AC35B107E1F715E0A2
:10056000CCE2D5E004C02297FE010E94A038C2323E
:10057000D107C9F70E9437310C94AD380C940000B4
:1005800020917F04309180042F5F3F4F309380048F
:1005900020937F0428173907BCF010928004109232
:1005A0007F048091810490918204009771F45E9899
:1005B0001092820410928104892B31F481E090E042
:1005C000909382048093810408955E9AF1CFE09124
:1005D0008904F0918A04309709F009950895A0E004
:1005E000B0E0880F991FAA1FBB1F9C019093840441
:1005F000809383044FB7F894C19A0A96889768F05D
:100600002852304030939900209398004FBF80913A
:10061000710082608093710008958AE090E0909369
:100620009900809398004FBF809171008260809301
:100630007100089547983F983E9A469847983F988A
:1006400085B78F7E85BF1092900082E080939100E5
:1006500010929200C59AE1E7F0E080818F7D80835F
:100660000895982F8FB7F8941092950010929400E7
:100670008FBF809171008F7D809371008091910078
:100680008F7B80939100809171008D7F80937100AA
:10069000E0918904F0918A04309711F0892F09952F
:1006A000109204010895E0918904F0918A04309732
:1006B00011F080E009958FB7F89410929500109290
:1006C00094008FBF809171008F7D80937100809125
:1006D00091008F7B80939100809171008D7F80933A
:1006E000710008952FB7F89410929500109294001D
:1006F0002FBFE1E7F0E020812F7D2083A1E9B0E06A
:100700002C912F7B2C9320812D7F208390937A0432
:100710008093790470938A046093890481E08093C4
:10072000040147983F9884E690E090938404809376
:1007300083042FB7F894C19A8CE390E090939900CA
:10074000809398002FBFE1E7F0E080818260808392
:10075000089547983F9A82E08093040188E592E0EB
:1007600090938404809383042FB7F894C19A80E314
:1007700092E090939900809398002FBFE1E7F0E01A
:1007800080818260808308951F920F920FB60F922E
:1007900011242F933F934F935F936F937F938F9386
:1007A0009F93AF93BF93EF93FF9380917B04882334
:1007B00009F040C091E090937B04809191008064A7
:1007C0008093910090937C04209196003091970043
:1007D0008091940090919500821B930B90939500CB
:1007E000809394003695279530937E0420937D0462
:1007F000809104018C3009F47DC08D3089F18B30FB
:1008000019F1E0918904F0918A04309711F085E1A3
:100810000995FF91EF91BF91AF919F918F917F913A
:100820006F915F914F913F912F910F900FBE0F905D
:100830001F90189510927B04809191008F7B80937C
:10084000910010927C04C0CF2535310508F4A0C07A
:100850002550314008F0B0C08CE080930401D9CF1E
:1008600080917C04882309F474C040918B045091DA
:100870008C04240F351F2634310508F4ACC023380E
:10088000310508F0AFC0E0918E04F0918F04208113
:10089000220F208380917D0490917E044817590790
:1008A00010F4216020838091850481508093850419
:1008B000882309F052C0A0917904B0917A04199666
:1008C0009C911997983008F091C0FD01E90FF11D36
:1008D00080918D0481839F5F19969C938DE894E0AD
:1008E00090938F0480938E0410928D0488E08093FF
:1008F000850433C080917C04882309F444C040916E
:100900008B0450918C04CA0186549040820F931F2F
:10091000CD9708F055C080917D0490917E04841796
:10092000950718F480E10E94E7028DE080930401AE
:10093000E0917904F0917A0411868DE894E0909327
:100940008F0480938E0410928D0488E08093850438
:1009500060CF30938C0420938B0484E091E09093DB
:100960008404809383042FB7F894C19A8CED90E0AF
:1009700090939900809398002FBF809171008260BE
:100980008093710046CF30938C0420938B0441CF29
:100990008DE00E94310384EE91E00E942C0C609166
:1009A0007D0470917E0480E090E00E94390D80E02B
:1009B00091E00E94D50D2DCF8EE00E94310329CF0A
:1009C0008FE00E94E70281E08093040140918B0454
:1009D00050918C04A0CF81E10E94E70281E08093D6
:1009E0000401BBCF82E10E94E702F8CF83E10E94BD
:1009F000E702F4CF30918704383009F449C0809180
:100A00007C048823F9F047983F9A10927C048091E7
:100A1000860487FD4BC082E890E090938404809325
:100A200083042FB7F894C19A8AE590E090939900D7
:100A3000809398002FBF8091710082608093710035
:100A400080E0089547983F9881E080937C0440912E
:100A5000860447FD1FC086E490E090938404809351
:100A600083042FB7F894C19A8EE190E09093990097
:100A7000809398002FBF80917100826080937100F5
:100A8000440F409386043F5F3093870480E00895CD
:100A900081E0089582E890E0909384048093830439
:100AA0002FB7F894C19A8AE590E0E0CF86E490E011
:100AB00090938404809383042FB7F894C19A8EE1B5
:100AC00090E0B4CF1F920F920FB60F9211242F9384
:100AD0003F934F935F936F937F938F939F93AF93C6
:100AE000BF93EF93FF93209183043091840480910E
:100AF00094009091950082179307C8F3C19A809152
:100B000071008D7F80937100809194009091950089
:100B1000821B930B90939500809394008091040125
:100B2000863009F40BC1873098F08A3009F4A3C0ED
:100B30008B3008F443C08D3009F4D6C08E3009F4F0
:100B4000CEC08B3009F494C081E08093040153C07F
:100B5000823009F4DDC0833008F45EC0843031F0A7
:100B6000853008F068C084E08093040130918704E8
:100B7000383009F41AC180917C04882309F4E8C054
:100B800047983F9A10927C048091860487FD17C194
:100B900082E890E090938404809383042FB7F894C4
:100BA000C19A8AE590E090939900809398002FBFB6
:100BB000809171008260809371001DC0883009F4BB
:100BC0006FC0893008F04AC047983F9881E490E0B0
:100BD0000E94EF0210928804E0917904F0917A0467
:100BE0008181809386041092870481E080937C0445
:100BF00088E080930401FF91EF91BF91AF919F91A5
:100C00008F917F916F915F914F913F912F910F90B5
:100C10000FBE0F901F901895882369F3813009F05B
:100C200093CF47983F9A80E293E00E94EF0282E0E0
:100C300080930401E0CF47983F98E0917904F091C8
:100C40007A0480818C708C3009F4A7C086E990E02A
:100C50000E94EF0286E080930401CDCF47983F9831
:100C600083E290E00E94EF028EE080930401C3CF04
:100C70000E945303C0CF809191008F7B809391009D
:100C800010927B04C59A80917100806280937100FC
:100C900084E091E00E94EF028BE080930401ABCFEF
:100CA0000E94FA04882309F4A6CF823009F4B1C067
:100CB000909188049F5F90938804E0917904F0916B
:100CC0007A048185981709F092C047983F9A81E489
:100CD00090E00E94EF0289E0809304018CCF109293
:100CE00004010E94530387CFE0917904F0917A04C4
:100CF0008185882339F080918504883019F40E9419
:100D0000530303C084E10E9431031092040173CFA6
:100D100047983F988CE390E00E94EF02E0917904BD
:100D2000F0917A048081809386041092870481E098
:100D300080937C0483E0809304015DCF47983F9AC1
:100D400083E290E00E94EF0287E08093040153CF9A
:100D500047983F9881E080937C044091860447FD4A
:100D60003AC086E490E090938404809383042FB784
:100D7000F894C19A8EE190E0909399008093980046
:100D80002FBF80917100826080937100440F409367
:100D900086043F5F309387042ECF83E290E00E9469
:100DA000EF028AE08093040126CF47983F9A81E4BE
:100DB00090E00E94EF0285E0809304011CCF86E45E
:100DC00090E090938404809383042FB7F894C19AA1
:100DD0008EE190E0E8CE82E890E0909384048093E6
:100DE00083042FB7F894C19A8AE590E0C5CFE90F44
:100DF000F11D8181809386041092870481E08093A5
:100E00007C040E94FA04813009F45FCF823009F03B
:100E1000F2CE0E94A903EFCE8093B80481E08093C4
:100E2000B90480938E0108951092BB041092BC0403
:100E300008951092A7041092A8041092A904109289
:100E4000AA041092AB041092AC041092AD0410925C
:100E5000AE0480EE8093B00408958091BB04882393
:100E6000D1F49091910496FF22C021E02093BB041D
:100E70008091B7048823E1F01092BC048AEE90E0E0
:100E80000E942C0C8091BC048823C9F081E094E07E
:100E90000E94FB0D08958091910486FD08C084E0B6
:100EA00091E00E94FB0D1092BB041092BC040895C7
:100EB0009F709450923000F72093BC04DFCF88E0FD
:100EC00094E00E94FB0D08950F931F93CF93DF933F
:100ED000082F85E091E00E94470C60919004629594
:100EE0006F7070E080E090E041E00E94230E8091FE
:100EF00090048C708C3009F4B3C0883009F4ACC015
:100F000088E50E940C0D60919004637070E080E0B1
:100F100090E041E00E94230E80919904882309F01B
:100F20007EC08DE50E940C0D80919904882309F400
:100F300069C0C1E0D0E031C080E30E940C0D16FD15
:100F40003CC080E30E940C0D15FD3CC080E30E9474
:100F50000C0D14FF3CC081E30E940C0D80E20E9446
:100F60000C0D13FD3CC080E30E940C0D12FD3CC033
:100F700080E30E940C0D11FD3CC080E30E940C0D2B
:100F800010FF3CC081E30E940C0D9E0121968091D0
:100F9000990490E028173907ACF587E091E00E94AA
:100FA000470CFE01E057FB4F8081182F87FFC4CF0D
:100FB00081E30E940C0D16FFC4CF81E30E940C0D4B
:100FC00015FFC4CF81E30E940C0D14FDC4CF80E354
:100FD0000E940C0D80E20E940C0D13FFC4CF81E330
:100FE0000E940C0D12FFC4CF81E30E940C0D11FF73
:100FF000C4CF81E30E940C0D10FDC4CF80E30E949A
:101000000C0DC3CF8BE091E00E94470C002311F040
:101010000E942C0DDF91CF911F910F9108958AE3CB
:101020000E940C0D80919904882309F47ACFC1E0C5
:10103000D0E0FE01E057FB4F608170E080E090E07F
:1010400042E00E94230E9E0121968091990490E037
:101050002817390774F365CF8CE40E940C0D53CF29
:1010600084E50E940C0D4FCF6F927F928F929F92DA
:10107000AF92BF92CF92DF92EF92FF920F931F93A6
:10108000CF93DF9380918E018823D1F110928E014E
:101090008091B904882331F01092B9048091B8048A
:1010A0008823F1F58091BA04863009F498C087301E
:1010B000E0F0893009F47FC08A3008F060C08730E2
:1010C00009F4C2C08830E1F489E991E00E94FB0D87
:1010D00081E00E9464078091B804882309F46BC002
:1010E00087E08093BA0480E00CC0823009F4FBC032
:1010F000833020F5882309F486C0813009F48BC041
:1011000081E0DF91CF911F910F91FF90EF90DF90E1
:10111000CF90BF90AF909F908F907F906F900895E9
:1011200087E191E00E942C0C6091B80470E080E0AF
:1011300090E00E94390D0E942C0DB4CF843009F448
:10114000AEC0853008F0BBC08FE591E00E94FB0D7A
:101150008BE48093900482E0809399048FE68093DF
:10116000910488E68093920480E994E06CE077E053
:101170000E94720384E08093BA0481E0C2CF8B3076
:1011800009F47DC08B3008F4C3C08C3009F0B8CFAF
:10119000909199041092B704953009F4CEC08091D3
:1011A000B804882319F4992309F0CBC08BE080930D
:1011B000BA0480E0A6CF8AEA91E00E94FB0D8DE49C
:1011C000809390041092990480E994E06CE077E0B9
:1011D0000E9472038AE08093BA0481E092CF80E893
:1011E00091E00E94FB0D81E00E9464078091B804A9
:1011F000882321F480919904882331F585E0809338
:10120000BA0480E07ECF87E291E00E94FB0D10924D
:10121000BB041092BC04469A85E08A95F1F7469883
:1012200082E391E00E94FB0D8DE480939004109284
:10123000990480E994E06CE077E00E94720382E018
:101240008093BA0481E05DCF81E991E00E94FB0DBB
:1012500089E48093900482E08093990487E68093E8
:10126000910488E68093920480E994E06CE077E052
:101270000E94720388E08093BA0481E042CF8CE43C
:10128000809390041092990480E994E06CE077E0F8
:101290000E9472038CE08093BA0481E032CF87E62B
:1012A00091E00E94FB0D81E00E9464078091B804E8
:1012B000882329F083E08093BA0480E022CF88E776
:1012C00091E00E94FB0D8FE48093900410929904AA
:1012D00080E994E06CE077E00E94720386E08093FE
:1012E000BA0481E00ECF8FEC91E00E94FB0D81E00B
:1012F0000E9464078091B804882329F4809199049E
:10130000882309F029C181E08093BA0480E0F9CEF6
:1013100088EB91E00E94FB0D81E00E9464078091C0
:10132000B804882329F480919904882309F0A7CF71
:1013300089E08093BA0480E0E4CE81E08093B70432
:101340002ECF80E00E9464078091BE04882309F4B8
:10135000B1C08091B704882309F087C190919204AD
:1013600080E020919304C22FD0E0C82BD92B90911C
:10137000940480E020919504022F10E0082B192B93
:101380008EE391E00E94470C809191040E94610CD1
:101390008BE491E00E94470C90E08091910487FDDE
:1013A000CEC1892F0E941A0D87E591E00E94470C5B
:1013B0008091910482958695869581700E941A0D80
:1013C0008BE591E00E94470C80919104829586956F
:1013D00081700E941A0D8FE591E00E94470C809168
:1013E0009104829581700E941A0D86E691E00E9418
:1013F000470C8091910486958695869581700E9410
:101400001A0D8BE691E00E94470C8091910486951D
:10141000869581700E941A0D80E791E00E94470C2A
:1014200080919104869581700E941A0D85E791E064
:101430000E94470C8091910481700E941A0D84E3F0
:1014400091E00E94470CBE0180E090E00E94390DBF
:1014500089E391E00E94470CB80180E090E00E948F
:10146000390D88E291E00E94470C6091960477273D
:1014700067FD7095872F972F0E94390D8AE791E0BD
:101480000E94470C60919704772767FD7095872F1E
:10149000972F0E94390D84E891E00E94470C6091DB
:1014A0009804772767FD7095872F972F0E94390D35
:1014B0000E942C0D0E942D078091B704882309F407
:1014C00072C090E08091910487FD37C140919A04E9
:1014D0004A7D809195048F7780939F041092A00499
:1014E00050919304852F86958072492B482B20912B
:1014F0009104922F9F7380E02091920430E0822B20
:10150000932B90939C0480939B04952F9F7380E072
:101510002091940430E0822B932B90939E0480932F
:101520009D04551F5527551F550F550F550F437EC9
:10153000452B40939A041092A2041092A104109299
:10154000A4041092A3041092A6041092A5048AE9A0
:1015500094E00E94531C2ACE9091930480E0A090C6
:101560009404BB24A82AB92A9091950480E0E090C5
:101570009604FF24E82AF92A8EE391E00E942C0CBD
:10158000CC24DD24C601B5010E94390D86E591E029
:101590000E942C0C00E010E0C801B7010E94390D38
:1015A0000E942C0DD1CD30919104932F9295969558
:1015B0009695917020919A042E7D832F817082954B
:1015C000880F807E292B282B9091BC04892F817055
:1015D000880F2D7F282B992309F4A2C0277E822F04
:1015E00032953695377030953170330F330F8B7FCE
:1015F000832B80939A0480919604992787FD909578
:1016000080589F4F9093A00480939F0490919204E0
:1016100080E02091930430E0822B932B90939C04E4
:1016200080939B049091940480E02091950430E095
:10163000822B932B90939E0480939D04809197041A
:10164000992787FD90959093A2048093A10480919F
:101650009804992787FD90959093A4048093A30400
:101660001092A6041092A50472CF20919104922F9B
:101670009F7380E0609092047724682A792A2091F1
:101680009304922F9F7380E0A0909404BB24A82A17
:10169000B92AE09095048FE7E822FF248EE091E0DC
:1016A0000E94470C86E191E00E94470C60919304F0
:1016B000629566956695617070E080E090E00E94AA
:1016C000390D8EE191E00E94470C60919304661FF2
:1016D0006627661F70E080E090E00E94390D88E286
:1016E00091E00E94470C00E010E0C801B7010E94A1
:1016F000390D84E391E00E94470C88249924C401A9
:10170000B3010E94390D89E391E00E94470CCC247B
:10171000DD24C601B5010E94390D0E942C0DCACEF0
:10172000932F990F990F9870277E832F880F880F1A
:101730008071292B282B822F53CF91E0C7CE91E0C7
:1017400030CE0E943408882319F481E080938E0102
:101750000895CF93DF93EC018091BD04813029F18E
:101760008091BE04882319F4DF91CF91089580E021
:1017700092E00E942C0C688170E080E090E00E9472
:10178000390D8FE891E00E94470C6981623049F180
:10179000633078F0643001F16430C8F0653021F7CF
:1017A00087E292E00E94FB0DDFCFCE010E94431240
:1017B000D7CF662329F489E092E00E94FB0DD4CFB5
:1017C000613091F68CE092E00E94FB0DCDCF8AE172
:1017D00092E00E94FB0DC8CF84E292E00E94FB0DD4
:1017E000C3CF85E192E00E94FB0DBECF8BE10E944A
:1017F000C10F8093BD0408958091BE04882321F019
:101800008091BF04882309F408950E94CE2A089588
:1018100081E00E94C10F1092BF04823091F082E0FB
:101820000E94C10F90E08230A9F09093C004809193
:10183000BF04882311F4992319F081E08093BE043A
:10184000089581E08093BF0482E00E94C10F90E080
:10185000823059F791E0E9CFCF93DF93EC0180918B
:10186000BE04882389F0FE018491882369F0982FB3
:101870008091BF04882319F0892F0E94022B2196A2
:10188000FE0194919923A1F7DF91CF910895CF9311
:10189000DF93EC018091BE04882359F0988199234D
:1018A00041F08091BF04882339F4219698819923CF
:1018B000C1F7DF91CF910895892F0E94022B2196C5
:1018C000F5CFFF920F931F93182F8091BE048823AA
:1018D00009F451C017FD53C08091BF04882329F03B
:1018E00080E30E94022B8091BF04F12EFF0C16FDB5
:1018F0008AC0882329F080E30E94022B8091BF04D4
:101900000F2D000FF6FC5CC0882329F080E30E94B5
:10191000022B8091BF04102F110F06FD48C08823B1
:1019200029F080E30E94022B8091BF04012F000F59
:1019300016FD57C0882329F080E30E94022B809176
:10194000BF04102F110F06FD44C0882329F080E347
:101950000E94022B8091BF04012F000F16FD4AC088
:10196000882329F080E30E94022B8091BF0406FDAA
:1019700018C0882379F41F910F91FF9008958091EA
:10198000BF04882309F4B1CF81E30E94022B809128
:10199000BF04ABCF80E30E94022B1F910F91FF90F9
:1019A0000895882341F381E30E94022BE4CF88232A
:1019B00009F4BCCF81E30E94022B8091BF04B6CF13
:1019C000882309F4A8CF81E30E94022B8091BF04F1
:1019D000A2CF882309F281E30E94022B8091BF04E9
:1019E000BBCF882309F4ADCF81E30E94022B809105
:1019F000BF04A7CF882309F4BACF81E30E94022B4A
:101A00008091BF04B4CF882309F47ACF81E30E9488
:101A1000022B8091BF0474CF982F8091BE0488233D
:101A200009F408958091BF048823D9F3892F0E9477
:101A3000022B0895882371F490E38091BE048823DB
:101A400009F408958091BF048823D9F3892F0E9457
:101A5000022B089591E3F1CF8091BE04882309F40D
:101A600008958091BF048823D9F38AE00E94022B55
:101A700008956F927F928F929F92AF92BF92CF9272
:101A8000DF92EF92FF920F931F93DF93CF93CDB727
:101A9000DEB72A970FB6F894DEBF0FBECDBF6B013D
:101AA0007C018091BE04882309F451C0C114D10483
:101AB000E104F10409F460C0F7FC66C08AE0882EF6
:101AC000912CA12CB12C3E010894611C711C08942E
:101AD00081089108A108B1088301080D191DC701EB
:101AE000B6012AE030E040E050E00E944C38F801B6
:101AF0006083C701B6012AE030E040E050E00E9478
:101B00004C38C901DA016C017D01C114D104E10432
:101B1000F104E9F6FAE08F169104A104B104B8F4D7
:101B2000F301E80DF91DE0810894811C911CA11CB2
:101B3000B11C8091BF04882321F08E2F805D0E940C
:101B4000022B8AE088169104A104B10448F32A9676
:101B50000FB6F894DEBF0FBECDBFCF91DF911F91BE
:101B60000F91FF90EF90DF90CF90BF90AF909F903C
:101B70008F907F906F9008958091BF04882339F3F0
:101B800080E30E94022BE3CF8091BF04882349F4B5
:101B9000F094E094D094C094C11CD11CE11CF11CC1
:101BA0008DCF8DE20E94022BF3CFCF93DF93EC0118
:101BB0008091BE048823B1F09881992369F08091C7
:101BC000BF04882319F0892F0E94022B2196988147
:101BD0009923A9F78091BE04882321F08091BF0446
:101BE000882319F4DF91CF9108958AE00E94022B97
:101BF000DF91CF910895CF93DF93EC018091BE04E4
:101C00008823C1F0FE019491992371F08091BF0463
:101C1000882319F0892F0E94022B2196FE019491AE
:101C20009923A1F78091BE04882321F08091BF04FD
:101C3000882319F4DF91CF9108958AE00E94022B46
:101C4000DF91CF910895CF92DF92EF92FF921F9391
:101C5000CF93DF936B017C01142F8091BE04882306
:101C600009F1493068F51123E9F02091BF04812F73
:101C700090E00197880F991F880F991FB701A6015F
:101C800004C076956795579547958A95D2F7DB01FD
:101C9000CA018F708A3090F0895C222359F4115068
:101CA000112319F7DF91CF911F91FF90EF90DF90F3
:101CB000CF9008950E94022B1150F2CF805DEDCF9E
:101CC00085E4C3E9D1E02091BF04222321F00E94E2
:101CD000022B2091BF04219688818823B1F718E058
:101CE000C6CF8091D00491E089278093D0048823C7
:101CF00029F08091C1048F5F8093C10408951F93E0
:101D0000182F8BE292E00E94FB0D81E08093D104BA
:101D10008091CA048093CE04112321F48091CB04D6
:101D20008093CF0484E68093B4011F9108951F939C
:101D30002091D104222361F09091C1048091B401DB
:101D4000981730F01092C104213021F0223039F17F
:101D50001F9108958FE892E00E942C0C6091CE04B0
:101D600070E080E090E00E94390D0E942C0D80917F
:101D7000CE0481508093CE04882351F78091C20411
:101D80009091C30407969093C7048093C6048091F2
:101D9000CC048093B4015E9A82E08093D1041091C8
:101DA000CD041123C1F06091C6047091C704A2ED67
:101DB000B4E0FB01412F50E09A012A0F3B1F8491B0
:101DC0008D933196A217B307D1F7460F571F509343
:101DD000C7044093C60482ED94E0612F4091C9048A
:101DE00022E30E9490278091C4049091C504209121
:101DF000C2043091C304820F931F2091C604309116
:101E0000C7048217930708F0A3CF5E988CEA92E08C
:101E10000E942C0C8091CF0481508093CF048823A2
:101E200049F489EC92E00E942C0C0E942C0D109237
:101E3000D1048ECF8CEB92E00E942C0C0E942C0DD2
:101E400081E00E947F0E84CF1092C1048DE20E9437
:101E5000E40F892B11F480E008958DE20E94F70FC2
:101E60009093C3048093C2048DE20E94E40F909388
:101E7000C5048093C4041092D104E091C204F0918F
:101E8000C3048491813039F73196CF010196E491F2
:101E90001092C804E13009F44EC0AC014F5F5F4FAF
:101EA000FC0184918093C9049A012F5F3F4FFA018E
:101EB00084918093CA04C9010196F9012491209369
:101EC000CB049C012F5F3F4FFC0184918093CC0495
:101ED0002F5F3F4F3093C7042093C60421503040FA
:101EE000F90184918093CD04893298F489E692E0D7
:101EF0000E942C0C6091CA0470E080E090E00E9487
:101F0000390D0E942C0D8091C804882381F081E056
:101F1000089586E492E00E942C0C68E270E080E074
:101F200090E00E94390D0E942C0D80E0089580E021
:101F30000E947F0EECCFE093C804AFCF8091C8041D
:101F4000882309F408958BE292E00E94FB0D81E062
:101F50008093D1048091CA048093CE048091CB04F5
:101F60008093CF0484E68093B401089520E08091AB
:101F7000BD019091BE018352914009F021E0822F72
:101F80000895880F880FE091BD01F091BE01E80F20
:101F9000F11DE4918E2F0895880F880FE091BD0107
:101FA000F091BE01E80FF11D25913491C90108950A
:101FB000880F880F8E5FE091BD01F091BE01E80FA0
:101FC000F11DE4918E2F0895880F880F8E5FE091A8
:101FD000BD01F091BE01E80FF11D25913491C901B9
:101FE000807080509F4F09F43070C9010895880FA8
:101FF000880F2091BD013091BE01280F311D2D5F4A
:102000003F4FF9018491235030408F3F19F0F9017F
:1020100025913491C9010895E1E6F0E080E88083DC
:1020200081E080838093FA040895AF92BF92CF92AB
:10203000DF92EF92FF920F931F935B016C018091EF
:10204000FA04882309F43CC0C601B50120E030E061
:1020500040E05FE30E94AB335B016C0120E030E0C5
:102060004AE755E40E94AB337B018C0120E030E06D
:1020700040E85FE30E94053588230CF462C0C80184
:10208000B70120E03FEF4FE757E40E94A534181650
:102090000CF047C0C601B50120E030E040E251E459
:1020A0000E94AB330E94D531CB01672B09F440C0AD
:1020B00020E931E0F9013197F1F70197D9F738C0FC
:1020C000C601B50120E030E04AE755E40E94AB3399
:1020D0007B018C0120E030E040E85FE30E940535A1
:1020E00088237CF1C801B70120E03FEF4FE757E4B8
:1020F0000E94A5341816ACF4C601B50120E030E00A
:1021000040E251E40E94AB330E94D531CB01672BF2
:1021100079F020E931E0F9013197F1F70197D9F72A
:1021200007C0C801B7010E94D531CB010197F1F773
:102130001F910F91FF90EF90DF90CF90BF90AF90E5
:10214000089561E070E0F1CF88E20E94C10F90E055
:10215000813051F09093FA04992329F480E8809318
:10216000610010926100089591E0F4CF0F931F93E6
:102170008C0183EE92E00E942C0CC8010E942C0C72
:102180001F910F9108952F923F924F925F926F92FD
:102190007F928F929F92AF92BF92CF92DF92EF92F7
:1021A000FF920F931F93DF93CF93CDB7DEB728979E
:1021B0000FB6F894DEBF0FBECDBF482E8CE20E9452
:1021C000F70F4C018CE20E94D80FE82E882309F407
:1021D000B7C0FF24CC24DD2462E0262E312C2C0E47
:1021E0003D1E5E010894A11CB11C682E772412C00C
:1021F000F501EF0DF11D8083F39428E02F1508F40D
:10220000D1C0C60101968615970559F06C018E154F
:1022100008F096C05C2CF601E80DF91D84918C3213
:1022200039F781EC91E00E94470C6F2D70E080E05F
:1022300090E00E94390D87EC91E00E94470CFF204E
:1022400051F08501F80181918F010E940C0D802FC2
:102250008A198F15B8F38BEC91E00E94D50D898116
:102260008234A0F583EE92E00E942C0C85E093E08E
:102270000E942C0C81E293E00E942C0C8DEC91E0EA
:102280000E94470C652D70E080E090E00E94390DBF
:102290008FEB91E00E94D50D80E028960FB6F89460
:1022A000DEBF0FBECDBFCF91DF911F910F91FF9089
:1022B000EF90DF90CF90BF90AF909F908F907F90E6
:1022C0006F905F904F903F902F9008958734D0F19A
:1022D000803541F6F1E0FF1508F071C0442049F562
:1022E000FA946F2D70E061507040620D731D62159D
:1022F000730508F4B2C020E030E0F101C901880F95
:10230000991F880F991F880F991F220F331F820F63
:10231000931F219130E020533040280F391F6E1752
:102320007F0760F7B90180E090E00E9489350E9444
:102330001510FF24C60101966C018E1508F46ACFB2
:1023400081E0ABCF23E0F21649F083EE92E00E94E9
:102350002C0C8EEC92E00E942C0C90CF843409F46B
:102360005AC0853458F4823409F450C0833409F4D7
:1023700048C08EEC92E00E94B61080CF8534E1F127
:102380008634B9F7E1E3F0E0A0E3B0E08A814420CD
:10239000D9F08B818D3269F28E3208F041C08B32D8
:1023A00041F7C7CF83EE92E00E942C0C85E093E0CA
:1023B0000E942C0C8FE293E00E942C0C63CF8FEED6
:1023C00092E00E94B6105ACF90E0C09721E030E032
:1023D00002C0220F331F8A95E2F78B818D3209F4F8
:1023E00041C08E3220F58B3221F68081822B808392
:1023F0008C91822B8C939DCFEEE2F0E0ADE2B0E0C9
:10240000C5CFE8E2F0E0A7E2B0E0C0CFE5E2F0E05F
:10241000A4E2B0E0BBCFEBE2F0E0AAE2B0E0B6CFDE
:102420008E3509F486CF8E3709F0A3CF82CF8E3553
:1024300061F08E3709F09DCF8081922F909589238E
:1024400080838C9189238C9374CF8081822B8083AD
:102450008C91209582238C936CCF60E070E080E0BB
:1024600090E065CF8081922F9095892380838C9115
:10247000822B8C935ECF8AE10E94CC0F9093FC0458
:102480008093FB040895CF92DF92EF92FF920F9317
:102490001F93DF93CF93CDB7DEB76D970FB6F89448
:1024A000DEBF0FBECDBF7C011E861F86188A198A2B
:1024B0001A8A1B8A1C8A1D8A80EE8F8B1981D12E65
:1024C000117E012F1983198618861B861A861D8690
:1024D0001C86F7018181823009F41CC1833008F425
:1024E00080C0843009F454C1843008F006C1F7017B
:1024F000668177818085918520E030E04AE754E469
:102500000E94AB330E94D5316C597F4F7D836C8321
:10251000F701628173818481958120E030E04AE790
:1025200054E40E94AB330E94D5316C547440F701DF
:10253000208130E040EB54E0C901849F9001859FE9
:10254000300D949F300D1124620F731F7B836A83BB
:102550008091FB049091FC049F838E831062198309
:102560006E010894C11CD11CC6010E94531C198124
:10257000F701668177818085918520E030E04AE728
:1025800054E40E94AB330E94D5316C597F4F7D8358
:102590006C83F701628173818481958120E030E052
:1025A0004AE754E40E94AB330E94D5316C54744026
:1025B000F701208130E040EB54E0C901849F900195
:1025C000859F300D949F300D1124620F731F7B8304
:1025D0006A831F821E821F7D1983C6010E94531CBD
:1025E0003FC0882309F44BC08130D1F5F7016681E3
:1025F00077818085918520E030E04AE754E40E94AD
:10260000AB330E94D5316C597F4F7D836C83F701CA
:10261000628173818481958120E030E04AE754E44F
:102620000E94AB330E94D5316C547440F701208175
:1026300030E040EB54E0C901849F9001859F300D4C
:10264000949F300D1124620F731F7B836A831F8256
:102650001E8291ECD922D982CE0101960E94531C90
:102660006D960FB6F894DEBF0FBECDBFCF91DF9150
:102670001F910F91FF90EF90DF90CF9008950E94EF
:102680008E2EF701668177818085918520E030E08C
:102690004AE754E40E94AB330E94D5316C597F4F16
:1026A0007D836C83F701628173818481958120E051
:1026B00030E04AE754E40E94AB330E94D5316C54B9
:1026C0007440F701208130E040EB54E0C901849F61
:1026D0009001859F300D949F300D1124620F731F60
:1026E0007B836A83898181601F821E828F7D8983BB
:1026F000CE0101960E94531CB3CF853009F0B0CFB4
:1027000090EED922D982CE0101960E94531C0E94DC
:10271000B82BA6CFF701668177818085918520E06F
:1027200030E04AE754E40E94AB330E94D5316C5943
:102730007F4F7D836C83F7016281738184819581F2
:1027400020E030E04AE754E40E94AB330E94D531E8
:102750006C547440F701208130E040EB54E0C90133
:10276000849F9001859F300D949F300D1124620F3E
:10277000731F7B836A838091FB049091FC049F8389
:102780008E8300620983CE0101960E94531C68CF9C
:102790006E010894C11CD11CEBCE1092260510923C
:1027A0002705089510921605109217051092180526
:1027B0001092190510921A0510921B0510921C0513
:1027C00010921D0580EE80931F0508951092FD0460
:1027D00086ED91E00E94292582E08093020208950F
:1027E00082E993E00E94FB0D1092260510922705C6
:1027F0008FE294E10E9433260E9463251092020228
:102800008091BE04882309F18BED91E00E94292577
:1028100020E030E040E951E0CA010197F1F72F5F75
:102820003F4F89E0243C3807B9F70E9458251092A1
:10283000FD0480EE91E00E94292581E08093020250
:1028400082EE91E00E94D50D08951092FD0486ED70
:1028500091E00E94292582E08093020208956F9200
:102860007F928F929F92AF92BF92CF92DF92EF9220
:10287000FF920F931F93CF93DF93182F87FD8BC188
:1028800080E20E940C0D612F70E080E090E042E059
:102890000E94230E80910202813091F0823009F46F
:1028A000C6C0DF91CF911F910F91FF90EF90DF9005
:1028B000CF90BF90AF909F908F907F906F90089532
:1028C0008091FD048B3040F4E82FF0E0E250FB4FA4
:1028D00010838F5F8093FD048B3019F7D090030530
:1028E00080910405C82FD0E0B090FF04C09000058F
:1028F000809001059090020560910505662329F0FE
:1029000080910605882309F066C100E010E0EE24FE
:10291000FF24AA24609008057090070588E493E0DE
:102920000E942C0CBE01677070707695762F66271A
:10293000779567952D2D30E0622B732B80E090E02A
:102940000E94390D8FEE91E00E94470C6C2D70E0D3
:10295000660F771F660F771F3B2D330F20E0622B2A
:10296000732B9E01207630703595279535952795E8
:10297000359527953595279535952795622B732B9A
:1029800080E090E00E94390D88EF91E00E94470CB2
:10299000692D70E0660F771F660F771F382D330F94
:1029A00020E0622B732BC871D070D595C795D59553
:1029B000C795D595C7956C2B7D2B80E090E00E9444
:1029C000390DAA2009F4F3C087E593E00E942C0C8E
:1029D000B80180E090E00E94390D8FE693E00E94FC
:1029E0002C0CB70180E090E00E94390D87E893E05D
:1029F0000E942C0C672D70E07695762F66277795D0
:102A00006795262D30E0622B732B80E090E00E94CA
:102A1000390D81E092E00E94D50D1092FD0486ED03
:102A200091E00E94292582E0809302023ACF17FDAF
:102A3000B5C08091FD04882309F433CF893008F4B0
:102A4000E4C0893009F02DCF1092FD048091FE047E
:102A5000682F70E0CB0196958795929582958F703F
:102A600089279F708927E82FE170809109058E7F63
:102A70008E2B809309054091040550E08091FF045E
:102A8000382F330F20E08091000590E0880F991FC8
:102A9000880F991F282B392BCA0180769070969544
:102AA0008795929582958F7089279F708927282B0B
:102AB000392B30930B0520930A0580910105382F9F
:102AC000330F20E08091020590E0880F991F880F56
:102AD000991F282B392BCA0188719070969587957C
:102AE0009695879596958795282B392B30930D05CC
:102AF00020930C05477050705695542F44275795D6
:102B000047958091030590E0482B592B50930F0572
:102B100040930E0590E04B30510508F05AC0929555
:102B2000990F907E20910905277D76956795862FD0
:102B30008170880F880F880F292B282B7695679531
:102B4000962F9170892F8295807F2F7E282B20933E
:102B5000090580912605882379F1EE2309F047C005
:102B60001092260510922705809109058D7F8B7F95
:102B7000809309051092110510921005109213050B
:102B800010921205109215051092140589E095E037
:102B90000E94531C86CE0E942C0D72CEA0E0B0E0A5
:102BA00081E0A250BB4F1C938093FD044ACF8DE778
:102BB00093E00E942C0C1ACFEE23C9F081E08093A1
:102BC0002605992379F2809327052260822F877E3C
:102BD000CECF91E0A4CF062F10E00F5F1F4FE82E5D
:102BE000FF240894E11CF11CAA24A39493CE209105
:102BF0002705922F9170990F809109058D7F892B60
:102C0000222309F4B4CF877EB2CFA82FB0E08F5F24
:102C1000C8CF8FEF8093280508950895089587E21F
:102C20000E94D80F882319F087E20E94F70F80E0F6
:102C30000895CF92DF92EF92FF920F931F93DF934D
:102C4000CF93CDB7DEB76D970FB6F894DEBF0FBE4A
:102C5000CDBF7C011E861F86188A198A1A8A1B8A94
:102C60001C8A1D8A80EE8F8B1981012F117E19839A
:102C7000198618861B861A861D861C86F701818197
:102C8000823009F41AC1833008F480C0843009F41A
:102C900052C1843008F005C1F701668177818085D3
:102CA000918520E030E04AE754E40E94AB330E9473
:102CB000D5316C597F4F7D836C83F70162817381BD
:102CC0008481958120E030E04AE754E40E94AB33F0
:102CD0000E94D5316C547440F701208130E040EB04
:102CE00054E0C901849F9001859F300D949F300D61
:102CF0001124620F731F7B836A838AE10E94CC0FC9
:102D00009F838E838981806289836E010894C11CB0
:102D1000D11CC6010E94531C1981F701668177817D
:102D20008085918520E030E04AE754E40E94AB338F
:102D30000E94D5316C597F4F7D836C83F70162818E
:102D400073818481958120E030E04AE754E40E9459
:102D5000AB330E94D5316C547440F701208130E0D0
:102D600040EB54E0C901849F9001859F300D949FF2
:102D7000300D1124620F731F7B836A831F821E82B2
:102D80001F7D1983C6010E94531C3EC0882309F48D
:102D90004AC08130C9F5F7016681778180859185C8
:102DA00020E030E04AE754E40E94AB330E94D53182
:102DB0006C597F4F7D836C83F701628173818481BD
:102DC000958120E030E04AE754E40E94AB330E9452
:102DD000D5316C547440F701208130E040EB54E071
:102DE000C901849F9001859F300D949F300D11245F
:102DF000620F731F7B836A831F821E82017C09839B
:102E0000CE0101960E94531C6D960FB6F894DEBF5A
:102E10000FBECDBFCF91DF911F910F91FF90EF902B
:102E2000DF90CF9008950E948E2EF7016681778102
:102E30008085918520E030E04AE754E40E94AB337E
:102E40000E94D5316C597F4F7D836C83F70162817D
:102E500073818481958120E030E04AE754E40E9448
:102E6000AB330E94D5316C547440F701208130E0BF
:102E700040EB54E0C901849F9001859F300D949FE1
:102E8000300D1124620F731F7B836A8389818160F7
:102E90001F821E828F7D8983CE0101960E94531C62
:102EA000B3CF853009F0B0CF007E0983CE01019603
:102EB0000E94531C0E94B82BA7CFF701668177812F
:102EC0008085918520E030E04AE754E40E94AB33EE
:102ED0000E94D5316C597F4F7D836C83F7016281ED
:102EE00073818481958120E030E04AE754E40E94B8
:102EF000AB330E94D5316C547440F701208130E02F
:102F000040EB54E0C901849F9001859F300D949F50
:102F1000300D1124620F731F7B836A838AE10E9444
:102F2000CC0F9F838E83898180628983CE01019635
:102F30000E94531C69CF6E010894C11CD11CEDCEB8
:102F4000EF92FF920F931F93CF93DF937A01E901E2
:102F500084179507A8F49C01261B370BC9F00C1B9E
:102F60001D0BB80180E090E040E050E00E94F73790
:102F7000970140E050E00E942A3889010C0F1D1F84
:102F8000C801DF91CF911F910F91FF90EF900895AD
:102F90008E01C801DF91CF911F910F91FF90EF90AB
:102FA0000895CF93DF939C01EB016115710581F0CA
:102FB000BA0180E090E040E050E00E94F7379E01C7
:102FC00040E050E00E942A38C901DF91CF91089576
:102FD00020E030E0C901DF91CF9108958EE10E9499
:102FE000CC0F90934C0580934B0580E20E94CC0F50
:102FF00090934805809347058FE10E94CC0F9093F2
:103000003B0580933A0581E20E94CC0F90933705EF
:103010008093360583E092E00E94470C609147055B
:103020007091480580E090E00E94390D8FE092E0B9
:103030000E94470C609136057091370580E090E062
:103040000E94390D82E10E94CC0F90934E0580932F
:103050004D0584E10E94CC0F90934A058093490569
:1030600083E10E94CC0F90933D0580933C0585E160
:103070000E94CC0F90933905809338058BE192E044
:103080000E94470C6091490570914A0580E090E0EC
:103090000E94390D85E292E00E94470C609138054C
:1030A0007091390580E090E00E94390D8FE292E046
:1030B0000E94470C82E20E94CC0F909340058093BF
:1030C0003F0584E20E94CC0F909342058093410516
:1030D00083E20E94CC0F90932F0580932E0585E20A
:1030E0000E94CC0F909331058093300586E10E94B9
:1030F000CC0F909344058093430588E10E94CC0F48
:10310000909346058093450587E10E94CC0F9093EC
:1031100033058093320589E10E94CC0F90933505E9
:103120008093340586E20E94CC0F90932A05809309
:1031300029058AE10E94CC0F90932C0580932B05E2
:1031400080913F0590914005892B39F4809141058C
:1031500090914205892B09F452C031E030933E052D
:1031600080912E0590912F05892B31F480913005A7
:1031700090913105892BA1F121E020932D05332376
:1031800009F04DC080912D05882309F408958EE340
:1031900092E00E94470C8091300590913105009794
:1031A00009F461C020913605309137052817390799
:1031B00020F4309331052093300580912E059091B5
:1031C0002F05009709F45EC020913A0530913B0528
:1031D00082179307D8F630932F0520932E05089574
:1031E0008091320590913305892B31F620E0809152
:1031F000340590913505892B09F4BFCFBDCF80915F
:10320000430590914405892B09F0A7CF30E08091C8
:10321000450590914605892B09F4A0CF9ECF81E307
:1032200092E00E94470C80914105909142050097E1
:1032300091F120914705309148052817390720F46E
:10324000309342052093410580913F0590914005C0
:10325000009779F580914B0590914C05909340052E
:1032600080933F058FCF80913605909137059093DD
:1032700031058093300580912E0590912F050097A0
:1032800009F0A2CF80913A0590913B0590932F05CC
:1032900080932E050895809147059091480590935D
:1032A00042058093410580913F059091400500972C
:1032B00089F220914B0530914C058217930708F055
:1032C00061CF3093400520933F055CCFCF93DF93D0
:1032D0009C01C0912905D0912A058C179D0731F1D9
:1032E000CF3FD10561F060912B0570912C0520979F
:1032F00071F420E030E0C901DF91CF910895609131
:103300002B0570912C0581E06F3F7807B9F080E0C4
:1033100090E040E050E00E94F7379E0140E050E02E
:103320000E942A38C901DF91CF91089520912B0581
:1033300030912C05C901DF91CF910895220F331FE1
:10334000C901DF91CF910895EF92FF920F931F93E0
:10335000CF93DF93BC0180913E05882369F10091F2
:103360003F05109140056017710708F455C0E090C3
:103370004105F0904205E616F706D8F1C0914305E5
:10338000D091440520914505309146056E157F0585
:1033900038F5601B710B29F180E090E02C1B3D0B90
:1033A00040E050E00E94F737970140E050E00E9473
:1033B0002A38C20FD31F15C080914B0590914C0540
:1033C0000091470510914805C0914D05D0914E05DB
:1033D0002091490530914A056017710708F442C0F1
:1033E000E901CE01DF91CF911F910F91FF90EF90F6
:1033F00008950091470510914805C0914505D09169
:1034000046052091490530914A056017710740F73C
:103410006E197F0981F4E5CFC0914D05D0914E051D
:10342000209143053091440580914B0590914C05C6
:10343000681B790BB1F280E090E02C1B3D0B40E063
:1034400050E00E94F737980140E050E00E942A388F
:10345000C20FD31FCE01DF91CF911F910F91FF902B
:10346000EF900895681B790B31F7BBCFEF92FF9275
:103470000F931F93CF93DF93BC0180912D05882379
:1034800069F100912E0510912F056017710708F45E
:1034900055C0E0903005F0903105E616F706D8F1FA
:1034A000C0913205D0913305209134053091350516
:1034B0006E157F0538F5601B710B29F180E090E0F7
:1034C0002C1B3D0B40E050E00E94F737970140E095
:1034D00050E00E942A38C20FD31F15C080913A05D0
:1034E00090913B050091360510913705C0913C0540
:1034F000D0913D052091380530913905601771074D
:1035000008F442C0E901CE01DF91CF911F910F91E4
:10351000FF90EF9008950091360510913705C09106
:103520003405D09135052091380530913905601763
:10353000710740F76E197F0981F4E5CFC0913C0512
:10354000D0913D05209132053091330580913A05A7
:1035500090913B05681B790BB1F280E090E02C1B49
:103560003D0B40E050E00E94F737980140E050E00A
:103570000E942A38C20FD31FCE01DF91CF911F9135
:103580000F91FF90EF900895681B790B31F7BBCF37
:103590009F92AF92BF92CF92DF92EF92FF920F93E2
:1035A0001F93CF93DF936C015B01942EFC0121816B
:1035B000328180913E05882371F100913F05109181
:1035C00040052017310708F4FFC0E0904105F09056
:1035D0004205E216F30608F4CFC0C0914305D0912E
:1035E000440560914505709146052E153F0538F557
:1035F000201B310B29F16C1B7D0B80E090E040E03B
:1036000050E00E94F737970140E050E00E942A38CE
:10361000C20FD31F15C080914B0590914C050091AE
:10362000470510914805C0914D05D0914E05609118
:10363000490570914A052017310708F4E5C0EB01F0
:10364000F501D183C083F6012381348180912D055A
:10365000882371F100912E0510912F052017310755
:1036600008F4EAC0E0903005F0903105E216F30668
:1036700008F496C0C0913205D091330560913405AD
:10368000709135052E153F0538F5201B310B29F1BA
:103690006C1B7D0B80E090E040E050E00E94F7372B
:1036A000970140E050E00E942A38C20FD31F15C096
:1036B00080913A0590913B050091360510913705B0
:1036C000C0913C05D0913D05609138057091390558
:1036D0002017310708F49CC0EB01F501D383C283A6
:1036E000F60125813681C0912905D0912A052C1734
:1036F0003D07E9F1CF3FD10589F560912B05709128
:103700002C05F1E06F3F7F0709F4A6C080E090E050
:1037100040E050E00E94F7379E0140E050E00E94F8
:103720002A38F50135832483992061F0F6018781D9
:103730009085F50197838683F60181859285F50151
:1037400091878087DF91CF911F910F91FF90EF902C
:10375000DF90CF90BF90AF909F90089560912B0520
:1037600070912C05209791F620E030E0DACF20917F
:103770002B0530912C05D5CF0091470510914805B8
:10378000C0914505D09146056091490570914A0563
:103790002017310708F053CF2E193F0929F550CFD4
:1037A0000091360510913705C0913405D09135054B
:1037B00060913805709139052017310708F08CCFDA
:1037C0002E193F0949F589CFC0914D05D0914E057D
:1037D000609143057091440580914B0590914C0593
:1037E000281B390B09F42CCF6C1B7D0B80E090E07B
:1037F00040E050E00E94F737980140E050E00E941E
:103800002A38C20FD31F1CCF281B390B69F718CFDA
:10381000281B390B09F461CF6C1B7D0B80E090E015
:1038200040E050E00E94F737980140E050E00E94ED
:103830002A38C20FD31F51CFC0913C05D0913D050E
:10384000609132057091330580913A0590913B0566
:10385000281B390B09F741CF220F331F62CF20916C
:103860004F05253059F0263031F0243009F0089505
:103870000E94C92E08950E948C2F08950E94C02E88
:1038800008958DE00E94C10F80934F058AE10E9448
:10389000CC0F90935105809350058BE10E94C10F8E
:1038A000809352050895EF92FF920F931F93DF9339
:1038B000CF93CDB7DEB729970FB6F894DEBF0FBE12
:1038C000CDBF8C017E010894E11CF11CB7010E9460
:1038D0000F168823A9F480914F058530B1F086300A
:1038E000E1F08430B1F029960FB6F894DEBF0FBE38
:1038F000CDBFCF91DF911F910F91FF90EF90089571
:10390000C801B7010E940E16EECFC8010E94C02E5A
:10391000EACFC8010E94C92EE6CFC8010E948C2FB1
:10392000E2CF1092890510928A05089510927705CA
:10393000109278051092790510927A0510927B0505
:1039400010927C0510927D0510927E0580EE80938A
:10395000800508958BE492E00E94292580918805D6
:10396000843020F487E080936905089589E080938E
:1039700069050895EF92FF920F931F930E946325AC
:1039800088E6E82E82E0F82EC7010E94292500E48F
:103990001CE9C8010197F1F70E94CB25C7010E94DD
:1039A0002925C8010197F1F781E0809396028FE6FF
:1039B00092E00E942925109253051F910F91FF90CC
:1039C000EF900895EF92FF920F931F9389E194E097
:1039D0000E942C0C1092890510928A0587EF9DE1B8
:1039E0000E9433260E94632598E6E92E92E0F92E84
:1039F000C7010E94292500E41CE9C8010197F1F7DD
:103A00000E94CB25C7010E942925C8010197F1F723
:103A100081E0809396028FE692E00E942925109221
:103A200053051F910F91FF90EF9008950F931F93EF
:103A3000809153058431A9F590915605953509F487
:103A400051C09B3419F0933409F454C01092870587
:103A500080916305813311F010928705809165058F
:103A6000823309F44BC0833309F486C0843309F4EC
:103A70003DC0853309F49EC0109288058091BE0434
:103A8000882309F043C0109253058091880588234C
:103A900031F180918705882311F181E01F910F9109
:103AA00008950E94632588E692E00E94292500E49B
:103AB0001CE9C8010197F1F70E94CB2588E692E046
:103AC0000E942925C8010197F1F781E080939602B1
:103AD0008FE692E00E9429251092530580E01F9105
:103AE0000F91089581E080938705B2CF84E08093A1
:103AF0008805C4CF83E080938705AACF82E08093B6
:103B000088058091BE04882309F4BDCF87EA93E03D
:103B10000E942C0C80915305833068F002E0E02F66
:103B2000F0E0EC5AFA4F80810E940C0D0F5F8091FB
:103B300053050817A0F30E942C0D80918705813052
:103B400009F44BC0813068F588EB93E00E942C0C9F
:103B500081EE93E00E942C0C80918805833009F45B
:103B600041C0843098F4882349F18230B9F486E763
:103B700092E00E94470C12C083E0809388059B343A
:103B800009F07CCF82E08093870578CF843001F103
:103B9000853021F482E892E00E94470C0E942C0DAF
:103BA00072CF823081F0833099F686ED93E00E94E7
:103BB0002C0CCECF85E08093880560CF88EB93E016
:103BC0000E942C0CEBCF8DEC93E00E942C0CC0CF0C
:103BD0008EE792E00E94470CE1CF84EC93E00E94D4
:103BE0002C0CB6CF8AE792E00E94470CD7CF1F93E8
:103BF000182F80919602823090F48091530588238B
:103C000009F4F1C0813009F40EC11D3009F44EC130
:103C1000843108F4EBC00E94BA1C1F9108958230D1
:103C2000E1F717FDF2C080915305882309F4E8C03D
:103C3000A09169058A1740F4E82FF0E0EC5AFA4F9A
:103C400010838F5F80935305A81739F7109253059F
:103C500040915405642F70E0CB010024880F991F18
:103C6000001C880F991F001C892F902DB82FB17050
:103C700080916A058E7F8B2B80936A052091550574
:103C800030E03695322F222737952795942F92953D
:103C9000990F990F907C80E0282B392B8091560545
:103CA00090E0282B392B30936C0520936B05809185
:103CB0005705E82FF0E02091580530E03695322F77
:103CC000222737952795CF0190E4899F902D88274B
:103CD0001124282B392B8091590590E0282B392B62
:103CE00030936E0520936D0580915A05282F30E0A2
:103CF00086FD9EC040E850E02F733070220F331FC6
:103D0000CF01847090709695879596958795282B0E
:103D1000392B242B352B3093700520936F05769526
:103D20006795729562956F7067277F706727962FEA
:103D300090959170990F990F80916A058B7F892BCF
:103D400080936A05BF0180918905882309F073C0BB
:103D5000BB23E1F081E080938905E5FFE6C0809315
:103D60008A0581EF93E00E942C0C80918A058823BC
:103D700009F4D6C081E094E00E94FB0D0E942C0D56
:103D800080915705682F70E0A091690590918A0590
:103D9000892F8170880F20916A052D7F282B992308
:103DA00009F463C0277E80915705682F70E0822F49
:103DB000769567957695679576956795962F917028
:103DC0009295990F907E8F7D892B80936A05A930FB
:103DD00009F481C010927605109275058AE695E087
:103DE0000E94531C1ACF1E3709F017CFE82FF0E0BE
:103DF000EC5AFA4F10838F5F809353051F910895FB
:103E000081E992E00E94D50D08CF80915305882367
:103E100009F047C01092530580E0A09169058A1708
:103E200008F012CF09CF133209F310925305F5CEE3
:103E300040E050E061CFBB2309F0A8CF8CE094E0D4
:103E40000E942C0C0E942C0D1092890510928A055C
:103E500080916A058D7F80936A0580915705682F50
:103E600070E0A091690520916A05AB0152954295D9
:103E70004F7045275F7045274170440F440F440F32
:103E8000277ECB0196958795929582958F7089278D
:103E90009F70892781708295807F242B282B822F09
:103EA00087CF8CE892E00E94470CB4CF0E94161D89
:103EB000882309F4B2CE0E94AA1C80E49CE90197F1
:103EC000F1F70E94632586E892E00E94292582E0AE
:103ED00080939602A2CE80915B0590E0BC016F7347
:103EE0007070709372056093710520915C0530E0ED
:103EF000A9014F735070509374054093730586FF6A
:103F000006C060547040709372056093710526FF7F
:103F100061CF4054504050937405409373055ACF7D
:103F200088E094E00E94FB0D29CF10928A0519CFFA
:103F30001092BF051092C00508951092AE05109220
:103F4000AF051092B0051092B1051092B205109213
:103F5000B3051092B4051092B50580EE8093B705B5
:103F6000089587E992E00E94292508950E9463251B
:103F700084EA92E00E94292520E030E040E951E007
:103F8000CA010197F1F72F5F3F4F81E02C323807CC
:103F9000B9F70E94CB258EEA92E00E94292520E005
:103FA00030E040E951E0CA010197F1F72F5F3F4F40
:103FB00081E02C323807B9F781E08093060385EB66
:103FC00092E00E94292510928B05089583E594E0E4
:103FD0000E94FB0D1092BF051092C00581E08093F6
:103FE000C10583EB90E20E9433260E94CB251092FC
:103FF000C1050E94632584EA92E00E94292520E001
:1040000030E040E951E0CA010197F1F72F5F3F4FDF
:1040100081E02C323807B9F70E94CB258EEA92E076
:104020000E94292520E030E040E951E0CA010197D3
:10403000F1F72F5F3F4F81E02C323807B9F781E06D
:104040008093060385EB92E00E94292510928B0550
:1040500008951F9380918B058431B9F480918E056A
:10406000873409F444C0883509F46DC01092BE0548
:104070008091BE04882309F042C010928B05809184
:10408000BE05811181E01F9108950E94632584EA95
:1040900092E00E94292520E030E040E951E0CA0189
:1040A0000197F1F72F5F3F4F81E02C323807B9F7C6
:1040B0000E94CB258EEA92E00E94292520E030E084
:1040C00040E951E0CA010197F1F72F5F3F4F81E0CE
:1040D0002C323807B9F781E08093060385EB92E034
:1040E0000E94292510928B0580E01F91089581E0A0
:1040F0008093BE058091BE04882309F4BECF83E37C
:1041000094E00E942C0C80918B05833068F012E0C3
:10411000E12FF0E0E457FA4F80810E940C0D1F5F01
:1041200080918B051817A0F30E942C0D8091BE057D
:104130008130A1F0813058F488EB93E00E942C0C80
:104140000E942C0D9ACF82E08093BE0591CF8230E1
:10415000B9F78BE494E00E942C0CF2CF84E494E055
:104160000E942C0CEDCF9F92AF92BF92CF92DF9224
:10417000EF92FF920F931F93CF93DF93182F8091AD
:10418000C105882379F4809106038230B8F4812F29
:104190000E940C0D80918B05882309F0E7C01E3723
:1041A00009F4DBC0DF91CF911F910F91FF90EF9049
:1041B000DF90CF90BF90AF909F900895823091F79D
:1041C00017FD18C180918B05882309F401C1612F67
:1041D00070E080E090E042E00E94230E83EE92E0E7
:1041E0000E94470C80918B05893040F4E82FF0E065
:1041F000E457FA4F10838F5F80938B05893091F6D7
:1042000080918C058093B70510928B050E942C0D30
:1042100080918C05E82FF0E0CF018C7F9070803C7E
:10422000910509F4BEC1CF018E7F90708038910551
:1042300009F4A6C280918F05A82FB0E020918E05C9
:1042400030E02F773070220F331F220F331FCD0144
:104250008076907096958795929582958F70892734
:104260009F708927282B392B40918D05942F990F0A
:1042700080E0282B392B3093A3052093A205809151
:104280009105082F10E08091900590E08F77907055
:1042900082959295907F9827807F9827980128771C
:1042A0003070369527953695279536952795822B2C
:1042B000932B9D01322F2227330F330F330F822B85
:1042C000932B9093A5058093A405EF01C87BD07034
:1042D000C03AD10509F49CC0CF018E7B9070843B1D
:1042E000910509F495C0883A910509F421C1803BF4
:1042F000910509F41DC18A3A910509F053CF409107
:10430000A10544602091920530E02F703070369501
:10431000322F2227379527958091930590E08F774C
:104320009070282B392B3093AD052093AC050024D9
:10433000EE0FFF1F001CEE0FFF1F001CEF2FF02DD4
:104340008E2F81704E7F482B4093A1051092B605A9
:1043500081EA95E00E94531C25CFE82FF0E0E45756
:10436000FA4F10838F5F80938B051CCF8130E1F172
:104370001D3029F0843188F30E94B61F13CF0E94AC
:104380002920882309F40ECF0E94B11F8AE20E94DF
:10439000C10F823009F4B8C2813009F4BAC288234F
:1043A00009F489C220E030E040E951E0CA010197F8
:1043B000F1F72F5F3F4F283C3105C1F70E9463257D
:1043C0008EEC92E00E94292582E080930603EACEDB
:1043D000612F70E080E090E042E00E94230E8EEDBD
:1043E00092E00E94D50DDECE133209F4B6CF1092C2
:1043F0008B05D8CE0E942C0D84ED92E00E94470CD4
:1044000080918B05882309F085C010928B05DFCE43
:104410009091C0059170990F8091A1058D7F892B96
:104420008093A10580919205682F70E0809193059B
:10443000482F50E09B012F7030703695322F222785
:1044400037952795CA018F779070282B392B83E0F9
:10445000243838070CF063C088279927821B930BF8
:104460009093AD058093AC05CA018F7390709093C3
:10447000A9058093A80546FF06C0805490409093FC
:10448000A9058093A8058091940590E09C012F7365
:1044900030703093AB052093AA0586FF06C02054E8
:1044A00030403093AB052093AA05C03AD10509F4FA
:1044B00075C1077010701695102F00271795079576
:1044C0006F777070062B172B1093BD050093BC05FA
:1044D0009091A1050024EE0FFF1F001CEE0FFF1F9F
:1044E000001CEF2FF02D8E2F81709E7DB695A79525
:1044F000B695A795B695A7952A2F21702295220FDC
:10450000207E982B922B9093A10581EA95E00E9442
:10451000531C48CE89ED92E00E94470C76CF87E08D
:1045200097E0821B930B9093AD058093AC059CCFD5
:104530004091A10544604093A1051092A9051092F5
:10454000A8051092AB051092AA058091AE05909136
:10455000AF05A091B005B091B1059770A070B07093
:1045600084399105A105B10509F465C18639910524
:10457000A105B10509F4B2C10797A105B10509F478
:10458000CDC10024EE0FFF1F001CEE0FFF1F001C0B
:10459000EF2FF02D8E2F81704E7F482B4093A10579
:1045A00001CE992493949092BF0520918E05C22F3D
:1045B000D0E0CC77D070D695C795D695C795809129
:1045C0008D0590E08F779070880F991F8295929556
:1045D000907F9827807F9827C82BD92B80918F05B3
:1045E000E82EFF2400E010E08FE790E0A0E0B0E0CC
:1045F000E822F9220A231B23E7E1EE0CFF1C001F2F
:10460000111FEA95D1F78091900590E0A0E0B0E00D
:104610008F779070A070B070DC0199278827E82A06
:10462000F92A0A2B1B2B30E040E050E06EE1220F0C
:10463000331F441F551F6A95D1F7E22AF32A042B32
:10464000152B8091910590E0A0E0B0E059E0880F33
:10465000991FAA1FBB1F5A95D1F7A070B070E82A06
:10466000F92A0A2B1B2B8091920590E0A0E0B0E084
:104670008F779070A070B070880F991FAA1FBB1F12
:10468000880F991FAA1FBB1FE82AF92A0A2B1B2B88
:104690008091930590E0A0E0B0E080769070A070EB
:1046A000B07035E0B695A795979587953A95D1F76F
:1046B000E82AF92A0A2B1B2B85EE92E00E94470C70
:1046C0005E01CC24DD24C601B50146E00E94230E24
:1046D0000E942C0D86EF92E00E94470CC801B701A2
:1046E00048E00E94230E0E942C0D1092C005CE01BE
:1046F00086709F708250984011F09092B605B1E09C
:10470000C231DB0709F4DCC021E0C331D20708F075
:1047100074C0C639D10509F4DDC0C739D10508F028
:1047200022C1C730D10509F4D5C0C439D10509F477
:10473000D1C08091A1058B7F22E5A22E28E0B22E68
:10474000C12CD12C81609091C0059170990F8D7F03
:10475000892B8093A105A092AE05B092AF05C092BF
:10476000B005D092B105E092B205F092B305009386
:10477000B4051093B50581EA95E00E94531C12CD53
:104780001092BF051092C0058091A1058E7F809385
:10479000A10581EA95E00E94531C04CDC8018770F1
:1047A00090709695982F8827979587956F7770705A
:1047B000862B972B9093A7058093A60540E00B9737
:1047C00008F041E04295440F407E8091A105877D2D
:1047D0009F01369527952170220F220F220F842BDF
:1047E000822B9F0136952795369527952170229526
:1047F000207F8F7E822B982F6DCE89E0C231D80723
:1048000009F45EC099E0C331D90708F09DC0A8E063
:10481000CA32DA0721F0CA55D84009F08ACF81E0C0
:104820008093C0058AE5A82E88E0B82EC12CD12C33
:104830008091A10587CF9801277030703695322F6F
:104840002227379527958091920590E08F77907079
:10485000282B392B3093B9052093B8056091940526
:10486000462F50E063FF08C088279927821B930BCF
:104870009093B9058093B805407750705695479549
:104880006770642B6093BA052091B6050024EE0F83
:10489000FF1F001CEE0FFF1F001CEF2FF02D9E2F9F
:1048A00091708091A1058E7F892B8093A105222391
:1048B00009F078CC4DCD88EC92E00E94292572CD8C
:1048C0008091A1058B7F92E1A92E99E0B92EC12C90
:1048D000D12C38CF8091A105846034CF809194058C
:1048E0008093BA050024EE0FFF1F001CEE0FFF1F80
:1048F000001CEF2FF02D9E2F91708091A1058E7FCF
:10490000892B8093A10524CD8CEB92E00E94292570
:1049100049CD82EC92E00E94292544CD4091940536
:10492000242F30E0C9018C719070969587959695EB
:1049300087958093BA05227030703695279541701F
:10494000241B2093BB05CECF2DE0C231D20709F442
:10495000B7CF8DE0CA31D80709F461CFCA51D94029
:1049600009F0E7CE5CCFCC39D10509F4B3CFCA3F0B
:10497000D10509F0DECE53CF982F8091C80085FF76
:10498000FCCF8091C900877F8093C9008091C900C6
:104990008F7E8093C9008091C80087FF06C08091F8
:1049A000CE008091C80087FDFACF8091C800806456
:1049B0008093C8009230E1F0933078F09131C1F0EB
:1049C000923161F19031E1F41092C80083E390E0FC
:1049D0009093CD008093CC0013C09923E1F4109202
:1049E000C80087E690E09093CD008093CC0008C08B
:1049F0001092C80089E190E09093CD008093CC00A4
:104A00008091C90088608093C9008091C90080614D
:104A10008093C9000895913099F7D6CF1092C800BD
:104A20008CE090E09093CD008093CC00E9CF109281
:104A3000C80088E18093C90086E08093CA005A9834
:104A40000895982F8091C80085FFFCCF9093CE00E9
:104A50000895FC019081992351F031968091C8000E
:104A600085FFFCCF9093CE0090819923B1F70895F4
:104A7000FC018491882359F0982F8091C80085FF0C
:104A8000FCCF9093CE00319694919923B1F708957D
:104A90008091C80087FF0BC08091CE00E091C205D5
:104AA000F091C30509958091C80087FDF5CF089561
:104AB0008091C80087FF06C08091CE008091C80019
:104AC00087FDFACF08951F9388E20E94C10F182F27
:104AD0008AE20E94C10F982F8091C80085FFFCCF09
:104AE0008091C900877F8093C9008091C9008F7E23
:104AF0008093C9008091C80087FF06C08091CE00D6
:104B00008091C80087FDFACF8091C80080648093AF
:104B1000C800812F8295807F892B8230E1F083301D
:104B200078F08131C1F0823169F18031E1F4109285
:104B3000C80083E390E09093CD008093CC0013C035
:104B40008823E9F41092C80087E690E09093CD00A6
:104B50008093CC0008C01092C80089E190E0909347
:104B6000CD008093CC008091C90088608093C900FB
:104B70008091C90080618093C9001F9108958130A0
:104B800091F7D5CF1092C8008CE090E09093CD00C3
:104B90008093CC00E8CF1F9388E20E94C10F182FAA
:104BA00089E20E94C10F982F8091C80085FFFCCF39
:104BB0008091C900877F8093C9008091C9008F7E52
:104BC0008093C9008091C80087FF06C08091CE0005
:104BD0008091C80087FDFACF8091C80080648093DF
:104BE000C800812F8295807F892B8230E1F083304D
:104BF00078F08131C1F0823169F18031E1F41092B5
:104C0000C80083E390E09093CD008093CC0013C064
:104C10008823E9F41092C80087E690E09093CD00D5
:104C20008093CC0008C01092C80089E190E0909376
:104C3000CD008093CC008091C90088608093C9002A
:104C40008091C90080618093C9001F9108958130CF
:104C500091F7D5CF1092C8008CE090E09093CD00F2
:104C60008093CC00E8CF1F93CF93DF93EC01109299
:104C7000C80088E18093C90086E08093CA005A98F2
:104C800088E20E94C10F182F89E20E94C10F982F5D
:104C90008091C80085FFFCCF8091C900877F8093F9
:104CA000C9008091C9008F7E8093C9008091C8009F
:104CB00087FF06C08091CE008091C80087FDFACFA3
:104CC0008091C80080648093C800812F8295807F86
:104CD000892B8230E1F0833078F08131C1F082316C
:104CE00099F18031E1F41092C80083E390E0909351
:104CF000CD008093CC0013C0882319F51092C80012
:104D000087E690E09093CD008093CC0008C010928D
:104D1000C80089E190E09093CD008093CC00809111
:104D2000C90088608093C9008091C9008061809328
:104D3000C900D093C305C093C205DF91CF911F91E5
:104D40000895813061F7CFCF1092C8008CE090E0D9
:104D50009093CD008093CC00E2CF1092D7051092B3
:104D6000D8051092D9051092DA051092DB05109241
:104D7000DC051092DD051092DE0580EE8093E005E3
:104D8000089583E994E00E94FB0D8EEC96E20E9468
:104D900033260E9463251092E70508951F93182F6C
:104DA00087FD98C080E20E940C0D612F70E080E0CA
:104DB00090E042E00E94230E8091E705882359F499
:104DC00017FD0BC08091C405882329F0853008F4B5
:104DD00084C0853061F01F910895E0E0F0E081E04B
:104DE000EB53FA4F10838093C4058530A1F71092DE
:104DF000C4053091C705832F807E69F76091C9058E
:104E0000862F807E41F74091C50550E0CA010024FD
:104E1000880F991F001C880F991F001C892F902D47
:104E200081702091CA052E7F282B2093CA05232F3D
:104E300030E02F7130703695322F22273795279525
:104E40008091C60590E08F779070282B392B309396
:104E5000CC052093CB05262F30E02F71307036958E
:104E6000322F2227379527958091C80590E08F77BC
:104E70009070282B392B3093CE052093CD051092BE
:104E8000D0051092CF059A012170307040FF06C006
:104E900081E090E09093D0058093CF05922F9170A0
:104EA0009295990F907E8091CA05817C892B809381
:104EB000CA051092D2051092D1051092D405109215
:104EC000D3051092D6051092D5058AEC95E00E9484
:104ED000531C81CF0E942C0D65CFE82FF0E08F5F2F
:104EE0007FCF90E08091E805863011F0892F0895FA
:104EF00091E0892F08959C018091E805863009F0A2
:104F00000895C9010E946A2F08958DE00E94C10F83
:104F10008093E80508958091E905811181E0089565
:104F2000382F792FE42FF0E0EE50FA4FE081809196
:104F3000E9058823F1F05FB7F8942093F8054093D2
:104F4000E9008091E80085FF0DC015C08091E9055A
:104F5000882379F05FB7F8944093E9008091E800E6
:104F600085FD09C05FBF8091F805882379F780E04F
:104F700008958FEF08956E1708F4E62FEE2389F059
:104F8000E150832F972FDC012E2F30E0EF5F2F5F52
:104F90003F4F2A0F3B1F8D918093F100A217B3075B
:104FA000D1F78AE38093E8005FBF8E2F08951F92A8
:104FB0000F920FB60F9211242F933F934F935F934D
:104FC0006F937F938F939F93AF93BF93CF93DF9311
:104FD000EF93FF931092E9008091E80083FF64C093
:104FE0009091F1009093EA052091F1002093EB0558
:104FF0004091F1004093EC053091F1003093ED05C4
:105000008091F1008093EE058091F1008093EF058F
:105010008091F1008093F0058091F1008093F1057B
:1050200082EF8093E8009132A1F1913A91F125301D
:1050300009F4D2C0263008F073C0213029F02130A5
:1050400008F448C0233081F5923071F58091EC0569
:105050009091ED05892B41F53091EE053F77832F37
:105060008150843008F58EEF8093E8003093E9009A
:105070002330D1F089E18093EB0081E090E002C021
:10508000880F991F3A95E2F78093EA001092EA00A0
:105090000EC08091EE059091EF05892B29F4213007
:1050A00011F1293009F4A5C081E28093EB00FF9152
:1050B000EF91DF91CF91BF91AF919F918F917F91B0
:1050C0006F915F914F913F912F910F900FBE0F9075
:1050D0001F9018958091E80080FFFCCF923809F46A
:1050E0000FC180E015C08091E800282F30E0C90191
:1050F00085709070892BB9F322FDD9CF8091EC0592
:10510000853009F44CC1863009F427C1833079F623
:105110008093F1001092F1008EEF8093E800C7CFEA
:10512000283009F4C4C0293009F47BC0263009F0C6
:10513000BBCF323009F4F7C0333008F0C7C031308C
:1051400009F0B2CF8091EC05882309F0ADCF84E05F
:105150000E94F70FEC0184E00E94D80F882309F425
:10516000A3CF2091F0053091F1052F3F310519F0C3
:1051700010F02FEF30E0582F281708F4522F6091CD
:10518000F2057EEF8091E800282F30E0C90185709C
:105190009070892BB9F322FD8ACF452F651708F44B
:1051A000462F442389F0FE01942F01C0F9019F018D
:1051B0002F5F3F4F84918093F1009150B9F7219672
:1051C0004150C40FD11D4F5F541B7093E80055230D
:1051D000C9F66417B9F26BCF8EEF8093E800809127
:1051E000E80080FFFCCF8091EC0580688093E300AD
:1051F0005ECF2091F20598E03BEF8091E80082FFBE
:10520000FCCF3093E800892F291708F4822F981BD0
:10521000A1F78091E80080FFFCCF8EEF8093E8003B
:1052200046CF992309F040CF4093E9058EEF809354
:10523000E8009091F305992371F081E08093E900F3
:105240008093EB0081EC8093EC00913208F4C9C0AC
:1052500086E38093ED009091F405992379F082E044
:105260008093E90081E08093EB0081EC8093EC0077
:10527000913208F4BAC086E38093ED009091F50571
:10528000992379F083E08093E90081E08093EB003B
:1052900081EC8093EC00913208F49FC086E3809308
:1052A000ED008EE18093EA001092EA0000CF903882
:1052B00009F0FACE8091E80080FFFCCF8091E905EB
:1052C0008093F1008EEF8093E800F1CE3330B1F19E
:1052D000323209F0E9CE8091EC05882309F0E4CE62
:1052E0008091EE05882309F4B9C0813009F0DCCE45
:1052F00087E00E94F70FEC0187E00E94D80F2ECFC5
:105300008091EE058093E9008091EB0090E0969506
:105310008795929582958F7089279F7089278170D4
:105320001092E900F5CE442309F0BECE85E00E943C
:10533000F70FEC0185E00E94D80F10CF8091EC05AB
:10534000823009F483C0833008F053C0882309F009
:105350006CC0CDE1D5E084E004CF8093F10081E81A
:105360008093F1001092F1001092F1001092F10080
:105370001092F1001092F1001092F1008EEF8093E4
:10538000E8008091E800282F30E0C9018570907016
:10539000892BB9F322FD8BCE1092F1003ECF809382
:1053A000F10080E88093F1001092F1001092F1007A
:1053B0001092F1001092F1001092F1001092F100A1
:1053C0008EEF8093E8008091E800282F30E0C9013B
:1053D00085709070892BB9F3DDCF9131F0F086E2C2
:1053E0005ECF9131F0F086E234CF913190F086E2D9
:1053F00043CF843009F442C08430C0F1853009F0D5
:1054000053CE8CE00E94F70FEC018CE00E94D80F85
:10541000A5CE9930A8F486E02FCF993098F486E095
:105420003ECF993088F486E014CF813009F03CCE2D
:1054300088E00E94F70FEC0188E00E94D80F8ECE22
:1054400086E11ACF86E12BCF86E103CF89E00E9467
:10545000F70FEC0189E00E94D80F80CE86E00E9411
:10546000F70FEC0186E00E94D80F78CE8AE00E9408
:10547000F70FEC018AE00E94D80F70CE8BE00E94FB
:10548000F70FEC018BE00E94D80F68CE1F920F92AD
:105490000FB60F9211242F933F934F935F936F9307
:1054A0007F938F939F93AF93BF93EF93FF938091DD
:1054B000E1001092E100982F93FF13C01092E900D1
:1054C00081E08093EB001092EC008091F205813234
:1054D00068F182E38093ED0088E08093F000109201
:1054E000E90592FF04C08091E905882389F4FF91C2
:1054F000EF91BF91AF919F918F917F916F915F914C
:105500004F913F912F910F900FBE0F901F901895C4
:105510008091F705882381F48091F805882319F09C
:1055200081508093F8050E94E82AE1CF813140F450
:10553000893040F482E0CECF81508093F705ECCFE4
:1055400082E2C8CF82E1C6CF81E08093D70080EAB3
:105550008093D80082E189BD09B400FEFDCF80E9C7
:105560008093D8001092E0001092E9058EE00E942E
:10557000C10F8093F2058FE00E94C10F8093F30565
:1055800080E10E94C10F8093F40581E10E94C10F68
:105590008093F5058CE08093E20008959FB7F8941E
:1055A0008091F905882391F083E08093E900809150
:1055B000E80085FF06C01092F1008091E80085FDAB
:1055C000FACF8AE38093E8001092F9059FBF08950F
:1055D0008091F9058823A9F081508093F9058823EB
:1055E00081F483E08093E9008091E80085FF06C0A4
:1055F0001092F1008091E80085FDFACF8AE3809354
:10560000E8000895FF920F931F93F82E0E948B27B6
:10561000882379F19FB7F89483E08093E900809123
:10562000FA05882331F08091E80085FF44C010928C
:10563000FA052091E4008091E80085FD27C0122F33
:105640001C5F9FBF8091E4008117C1F003E00DC093
:105650009FB7F8940093E9008091E80085FD16C09B
:105660009FBF8091E400811749F00E948B27882317
:1056700079F78FEF1F910F91FF90089581E080934C
:10568000FA058FEF1F910F91FF900895F092F100AE
:105690008091E80085FD0BC08AE38093E8001092BA
:1056A000F9059FBF80E01F910F91FF90089582E060
:1056B0008093F905F6CF9FBF8FEFDCCF1092FB05EB
:1056C00008958091FB05823018F081508093FB058E
:1056D00008958091FB05813009F008951092FB0533
:1056E0008FEF95E06091FC054091FD052091FE054E
:1056F0000E94902708951092FB050E94902708951C
:10570000DF92EF92FF920F931F93E82ED92E162F60
:10571000042FF22E8BE20E94CC0F65E070E00E9415
:1057200016386093FB051932D8F4E12FF0E02FEF23
:1057300035E0C9016E2D7D2DAF010E94A438009384
:10574000FD05F092FE058E2D9D2D612F402F2F2DF2
:105750000E9490271F910F91FF90EF90DF90089586
:1057600088EA94E00E94FB0D18E2E8E2F0E0DFCF67
:1057700080915606882321F0109256061092570603
:105780000895DF92EF92FF920F931F93DF93CF93D1
:10579000CDB7DEB72C970FB6F894DEBF0FBECDBFE6
:1057A0008C0182E080934C06D8019C9190FF88C0C8
:1057B00080915806882309F436C192FFB8C180EE63
:1057C00080934D0610924E0610924F06109250068E
:1057D00010925106F80185859685A785B089977046
:1057E000A070B07086399105A105B10509F43FC2DA
:1057F0000797A105B10509F44BC288EE80934D06C9
:10580000F80186898E7B8A3A09F45AC2D8015796E4
:105810004D915C9158979A0157FD35C23595279562
:1058200035952795C9018C7F9070959587959595AD
:1058300087958093520600243695279507943695D0
:1058400027950794322F202D20935306F801218DA0
:10585000352F331F3327331F330F330F330F822F6F
:1058600090E088719070880F991F2770282B232B48
:1058700020935406D8019C9191709295990F907E37
:1058800080914D068F7D892B80934D06C801BE0106
:105890006F5F7F4F40E00E94C81A99818A81809390
:1058A0004E0690934F069B818C8180935006909377
:1058B000510680915506877088668093550621C0F1
:1058C00080915806882309F4A0C01092580680E8F9
:1058D00080934D0610924E0610924F06109250067D
:1058E00010925106109252061092530610925406CE
:1058F000109255068091BE04882309F013C10E94BE
:105900009E0F89E093E00E94470C60914C0670E086
:1059100080E090E042E00E94230E8EE093E00E943F
:10592000470C60914D0670E080E090E042E00E94FC
:10593000230E8EE093E00E94470C60914E0670E0CB
:1059400080E090E042E00E94230E8EE093E00E940F
:10595000470C60914F0670E080E090E042E00E94CA
:10596000230E8EE093E00E94470C6091500670E099
:1059700080E090E042E00E94230E8EE093E00E94DF
:10598000470C6091510670E080E090E042E00E9498
:10599000230E8EE093E00E94470C6091520670E067
:1059A00080E090E042E00E94230E8EE093E00E94AF
:1059B000470C6091530670E080E090E042E00E9466
:1059C000230E8EE093E00E94470C6091540670E035
:1059D00080E090E042E00E94230E8EE093E00E947F
:1059E000470C6091550670E080E090E042E00E9434
:1059F000230E8EE093E00E94470C0E942C0D81E064
:105A00000E94C10F813009F47AC02C960FB6F89429
:105A1000DEBF0FBECDBFCF91DF911F910F91FF90E1
:105A2000EF90DF90089581E08093580682EC809398
:105A30004D06F801258536854785508921153105A4
:105A40004105510509F463C0DA01C901E4E0B695E6
:105A5000A79597958795EA95D1F7D82EF22EF294CF
:105A600070EFF722DA01C90164E1B695A795979521
:105A700087956A95D1F79FE0E92EE822BCE056951C
:105A8000479537952795BA95D1F7F22FF07FD80132
:105A900051962D913D914D915C9154972115310571
:105AA0004105510509F0B0C060E0E6E170E09CE21C
:105AB00080EDD0924E066F2960934F06E09350061A
:105AC00070935106909352068E2980935306F0935B
:105AD0005406109255068091BE04882309F411CF14
